:1000000029C043C042C041C040C03FC03EC03DC007
:100010003CC03BC03AC065C438C037C036C05BC1C5
:10002000A2C1000001020304000000000000000162
:1000300002048040201008040201080202020101AB
:100040000101010101010200003B00380000003AFB
:100050000037000011241FBECFE5D2E0DEBFCDBFC8
:1000600010E0A0E6B0E0E8EFF1E102C005900D92EB
:10007000A037B107D9F720E0A0E7B0E001C01D929A
:10008000A13BB207E1F729D4B5C8BACFCF93DF932C
:10009000CDB7DEB76E970FB6F894DEBF0FBECDBFFB
:1000A00061E081E80BD56DE670E0CE01499618D38A
:1000B0006DE670E0CE01439613D36DE670E0CE019D
:1000C0000D960ED3609174007091750064367105C1
:1000D000CCF44AE0CE01079620D36CE670E0CE0166
:1000E0000196FED2BE01695F7F4FCE010196CCD34F
:1000F000BC01CE01499676D3CE01019689D2CE01BC
:10010000079686D260917200709173006436710513
:10011000CCF44AE0CE01079600D36CE670E0CE0145
:100120000196DED2BE01695F7F4FCE010196ACD34E
:10013000BC01CE01439656D3CE01019669D2CE01C1
:10014000079666D260917000709171004AE0CE010E
:100150000196E3D2BE016F5F7F4FCE010D965FD354
:10016000CE01019655D2BE01675E7F4FCE0101964A
:100170004ED36EE670E0CE01019697D3BE016D5E60
:100180007F4F82D36EE670E090D3BE01635F7F4FF6
:100190007BD3BC01CE0107963AD3CE01019638D26B
:1001A0006F8178858CE790E0E9D160E081E886D4C2
:1001B000CE0107962DD2CE010D962AD2CE014396BE
:1001C00027D2CE01499624D26E960FB6F894DEBFA0
:1001D0000FBECDBFDF91CF91089568E070E08CE74E
:1001E00090E081D166E470E08CE790E0D6D161E0E8
:1001F00080E81FD461E081E81CD461E080E85EC43F
:1002000025E630E040E050E063E370E080E090E01D
:10021000E1D1709375006093740023E330E040E017
:1002200050E06AE070E080E090E0D4D17093730019
:10023000609372002DEC30E040E050E065E670E045
:1002400080E090E0C7D1709371006093700064E625
:1002500070E080E090E0B6C31092780010927900D0
:1002600010927600109277000895CF93C82FF4DF94
:10027000C0937B0010928300109282001092810044
:1002800010928000DC9ADE9AD49AD69888EA8DB9CA
:1002900080EF8EB9CF910895909177009F5F9F7006
:1002A000209176002917E1F3E92FF0E0E356FF4FA4
:1002B00080839093770008959091780080917900E1
:1002C000891B8F70089590917700809176009F5FD1
:1002D000891B8F7008951F920F920FB60F921124F1
:1002E0000F931F932F933F934F935F936F937F933E
:1002F0008F939F93AF93BF93CF93EF93FF9300910F
:100300008000109181000115110561F0C091790004
:10031000809178008C1731F0CFDF90E0F8010995DB
:10032000C093780010927A00D698CC9B1AC0CE9BCE
:10033000FCCF88EA8DB980EF8EB9FF91EF91CF9114
:10034000BF91AF919F918F917F916F915F914F91ED
:100350003F912F911F910F910F900FBE0F901F9003
:10036000189588EFE7CF1F920F920FB60F921124C6
:100370000F931F932F933F934F935F936F937F93AD
:100380008F939F93AF93BF93CF93EF93FF938091FE
:100390007A00823009F476C0C8F4882399F181305C
:1003A00009F456C0FF91EF91CF91BF91AF919F910A
:1003B0008F917F916F915F914F913F912F911F91FD
:1003C0000F910F900FBE0F901F901895843009F475
:1003D0005FC0B8F1853031F784E080937A009FB137
:1003E000809179008F5F8F7020917800281709F431
:1003F00070C080937900E0917900F0E0E357FF4FFF
:10040000908319C08FB1882331F08FB18695909178
:100410007B00891319C0789B12C0E0918200F09193
:100420008300309729F080917700809376000995BA
:1004300081E080937A001FB8D69A8EE721C084E0CD
:10044000F8CF8FB1882321F0D69888EA8DB917C0EC
:1004500080917600909177009817B1F380917600A3
:100460008F5F8F7080937600E0917600F0E0E35626
:10047000FF4F80818FB982E080937A00D69A80E71F
:100480008EB990CF83E080937A00D6981FB8D5CFED
:1004900085E080937A00D69880E78EB9009180003D
:1004A000109181000115110509F47CCFC0917900EC
:1004B000809178008C1709F475CF8EB18E7AE9F3AC
:1004C000759B70CFF9DE90E0F8010995C093780034
:1004D00069CFD698B2CF862F10927F0010927E00FF
:1004E00010927D00C2CEF7CFCF9380917D008823FC
:1004F000E1F080917E00803220F090E080E0CF91AA
:100500000895E0917F0080916A0090916B00E80F60
:10051000F92FF11D608380917F008F5F80937F00B2
:1005200080937E0081E090E0EACFC62FCCDE882366
:1005300021F38C2FB1DEF6CFCF92DF92EF92FF92B4
:100540000F931F93CF93DF936C01EB017B01E40EBC
:10055000F51E10E000E0CE15DF0531F06991C6010F
:10056000C3DF080F191FF7CFC801DF91CF911F918B
:100570000F91FF90EF90DF90CF9008956115710576
:1005800049F0FB0101900020E9F73197AF01461BCC
:10059000570BD2CF90E080E0089570938300609372
:1005A00082000895CF92DF92EF92FF926B017C015F
:1005B000C114D104E104F10431F08BD4A7019601F8
:1005C000DAD26B017C01C701B601FF90EF90DF909A
:1005D000CF900895CF92DF92EF92FF926B017C0152
:1005E000C216D306E406F5065CF4CA01B9016C191B
:1005F0007D098E099F09D6DFC60ED71EE81EF91E9B
:10060000C701B601FF90EF90DF90CF900895089555
:10061000FC018081918189C3CF93DF93EC018881B4
:100620009981009709F081D3198218821D821C825A
:100630001B821A82DF91CF9108950F931F93CF935E
:10064000DF93EC018B016F5F7F4F8881998198D494
:10065000009751F0998388831B830A8381E0DF919F
:10066000CF911F910F91089580E0F9CFCF93DF9341
:10067000EC0188819981892B49F08A819B818617B9
:10068000970720F081E0DF91CF910895CE01D5DF6B
:100690008823C9F38C819D81892BA1F7E881F98199
:1006A0001082F0CFEF92FF920F931F93CF93DF93BF
:1006B000EC017B018A01BA01D9DF81110AC0CE01A8
:1006C000ABDFCE01DF91CF911F910F91FF90EF90A3
:1006D00008951D830C83B7018881998110D5F1CFCE
:1006E000FC0111821082138212821582148261151C
:1006F000710549F0FB0101900020E9F73197AF0146
:10070000461B570BCFCF0895FB0101900020E9F75E
:100710003197AF01461B570BC5CF0F931F93CF9354
:10072000DF93CDB7DEB762970FB6F894DEBF0FBE8A
:10073000CDBF8C01CB01F80111821082138212828D
:100740001582148250E0BE016F5F7F4FDFD4BE017F
:100750006F5F7F4FC801D8DF62960FB6F894DEBF97
:100760000FBECDBFDF91CF911F910F9108950F93D1
:100770001F93CF93DF938C01EB01FC01808191816A
:100780000097F1F06881798161157105C1F027E06A
:1007900033E0232BA1F0428153812C813D8142170C
:1007A000530768F0ACD48C819D81F80195838483D4
:1007B0001D821C82DF91CF911F910F910895B5D2B8
:1007C00088819981F801918380838A819B819383B9
:1007D00082838C819D8195838483198218821B82F8
:1007E0001A82E6CFCF93DF93EC01FB0186179707C0
:1007F00041F0608171816115710539F04481558145
:1008000051DFCE01DF91CF91089506DFFACFFC01D1
:10081000118210821382128215821482E3CFCF9349
:10082000DF93EC018617970709F0A1DFCE01DF9176
:10083000CF910895EF92FF920F931F93CF93DF9381
:100840006115710541F480E0DF91CF911F910F9107
:10085000FF90EF90089541155105A1F07B01EC0147
:100860000C811D81040F151FB80100DF882359F387
:10087000288139818C819D81B701820F931F3FD4DC
:100880001D830C8381E0E0CFCF93DF93EC01FB016C
:100890004481558160817181CDDF811102C0CE011B
:1008A000BBDECE01DF91CF910895CF93DF93EC01B2
:1008B0006115710531F4CE01AFDECE01DF91CF912C
:1008C0000895FB0101900020E9F73197AF01461B25
:1008D000570BB0DF882379F3F0CF9ED07EDC90DC1D
:1008E000FECF1F920F920FB60F9211242F933F93BA
:1008F0008F939F93AF93BF938091850090918600D3
:10090000A0918700B09188003091840026E0230FE9
:100910002D3768F129E8230F0396A11DB11D2093FF
:1009200084008093850090938600A0938700B09305
:1009300088008091890090918A00A0918B00B091ED
:100940008C000196A11DB11D8093890090938A00AF
:10095000A0938B00B0938C00BF91AF919F918F912A
:100960003F912F910F900FBE0F901F9018950296F8
:10097000A11DB11DD4CF3FB7F8948091890090910B
:100980008A00A0918B00B0918C0022B708B600FEBF
:1009900005C02F3F19F00196A11DB11D3FBFBA2F11
:1009A000A92F982F8827BC01CD01620F711D811DD1
:1009B000911D43E0660F771F881F991F4A95D1F755
:1009C00008950895CF92DF92EF92FF92CF93DF9335
:1009D0006B017C01D0DFEB01C114D104E104F1040F
:1009E00061F0EFDFC8DF6C1B7D0B683E7340A0F346
:1009F000C114D104E104F10439F4DF91CF91FF90E7
:100A0000EF90DF90CF90089581E0C81AD108E108F7
:100A1000F108C851DC4FE6CF83E080BF83BF7894F4
:100A200099B7916099BF91E09FBD8EBD86E886B968
:100A30000895CF93DF9387FF07C0E82FEF778AE011
:100A40008E1BE83008F08FEF90E0FC01E15DFF4F76
:100A50002491855C9F4FFC0184918823C9F090E02C
:100A6000880F991FFC01E35BFF4FA591B491FC0136
:100A7000E95BFF4FC591D49161110DC09FB7F89408
:100A80008C91209582238C938881282328839FBF73
:100A9000DF91CF910895623051F49FB7F8943C9163
:100AA000822F809583238C93E8812E2BEFCF8FB7F5
:100AB000F894EC912E2B2C938FBFEACF87FF07C0C1
:100AC000E82FEF778AE08E1BE83008F08FEF90E098
:100AD000FC01EE5DFF4F3491FC01E15DFF4F24917D
:100AE000FC01E55CFF4FE491EE23B9F0332329F0DC
:100AF0003130A1F480B78F7780BFF0E0EE0FFF1F99
:100B0000E95BFF4FA591B4918FB7611117C0F894BD
:100B1000EC9120952E232C938FBF0895323019F439
:100B200080B78F7DE9CF333021F48FB58F778FBDBC
:100B3000E4CF343011F78FB58F7DF9CFF894EC9175
:100B40002E2BE9CFEE27FF27AA27BB2708C0A20F2D
:100B5000B31FE41FF51F220F331F441F551F969527
:100B600087957795679598F37040A9F7009799F75F
:100B7000BD01CF010895052E97FB16F400940FD008
:100B800057FD05D014D007FC02D046F408C050959C
:100B90004095309521953F4F4F4F5F4F0895909569
:100BA0008095709561957F4F8F4F9F4F0895A1E27B
:100BB0001A2EAA1BBB1BFD010DC0AA1FBB1FEE1FD7
:100BC000FF1FA217B307E407F50720F0A21BB30B22
:100BD000E40BF50B661F771F881F991F1A9469F79E
:100BE00060957095809590959B01AC01BD01CF01FA
:100BF00008950F931F93CF93DF938230910510F4E4
:100C000082E090E0E091AF00F091B00030E020E0B1
:100C1000B0E0A0E0309799F42115310509F44AC0FD
:100C2000281B390B24303105D8F58A819B81611549
:100C3000710589F1FB0193838283FE0111C040811C
:100C400051810281138148175907E0F0481759076D
:100C500099F4109761F012960C93129713961C93C7
:100C60003296CF01DF91CF911F910F91089500939C
:100C7000AF001093B000F4CF2115310551F04217A9
:100C8000530738F0A901DB019A01BD01DF01F8012A
:100C9000C1CFEF01F9CF9093B0008093AF00CDCFDB
:100CA000FE01E20FF31F81939193225031093983A2
:100CB0002883D7CF2091AD003091AE00232B41F493
:100CC00020916200309163003093AE002093AD001C
:100CD00020916000309161002115310541F42DB75C
:100CE0003EB74091640050916500241B350BE091A4
:100CF000AD00F091AE00E217F307A0F42E1B3F0BFE
:100D00002817390778F0AC014E5F5F4F241735077D
:100D100048F04E0F5F1F5093AE004093AD0081939B
:100D200091939FCFF0E0E0E09CCFCF93DF930097CB
:100D3000E9F0FC01329713821282A091AF00B091CA
:100D4000B000ED0130E020E01097A1F42081318166
:100D5000820F931F2091AD003091AE002817390704
:100D600009F061C0F093AE00E093AD00DF91CF9148
:100D70000895EA01CE17DF07E8F54A815B819E01FD
:100D800041155105B1F7E901FB83EA834991599176
:100D9000C40FD51FEC17FD0761F480819181029685
:100DA000840F951FE90199838883828193819B83B6
:100DB0008A83F0E0E0E012968D919C911397009762
:100DC000B9F52D913C911197CD010296820F931F99
:100DD0002091AD003091AE002817390739F63097D1
:100DE00051F51092B0001092AF00B093AE00A093F6
:100DF000AD00BCCFD383C28340815181840F951F46
:100E0000C817D90761F44E5F5F4F88819981480FF9
:100E1000591F518340838A819B819383828321154B
:100E2000310509F0B0CFF093B000E093AF009ECF52
:100E3000FD01DC01C0CF13821282D7CF8F929F9227
:100E4000AF92BF92CF92DF92EF92FF92CF93DF9358
:100E5000EC01688179818A819B8161157105810529
:100E6000910521F464E279ED8BE597E02DE133EF14
:100E700041E050E080DE49015A0127EA31E440E0D8
:100E800050E060DE6B017C012CEE34EF4FEF5FEF42
:100E9000C501B40157DEC60ED71EE81EF91EF7FEC7
:100EA00006C081E0C81AD108E10880E8F80AC882C3
:100EB000D982EA82FB82C701B6019F77DF91CF9189
:100EC000FF90EF90DF90CF90BF90AF909F908F906A
:100ED00008958F929F92AF92BF92CF92DF92EF923E
:100EE000FF92609166007091670080916800909118
:100EF0006900611571058105910521F464E279EDC0
:100F00008BE597E02DE133EF41E050E034DE49011D
:100F10005A0127EA31E440E050E014DE6B017C0125
:100F20002CEE34EF4FEF5FEFC501B4010BDEC60EC0
:100F3000D71EE81EF91EF7FE06C081E0C81AD108C8
:100F4000E10880E8F80AC0926600D0926700E0925B
:100F50006800F0926900C701B6019F77FF90EF909B
:100F6000DF90CF90BF90AF909F908F900895609347
:100F700066007093670080936800909369000895FD
:100F8000B0E0A0E0E5ECF7E000C18C01009741F48F
:100F9000CB012FDE8C01C801CDB7DEB7E0E111C176
:100FA000FC01E60FF71F9C0122503109E217F307FD
:100FB00008F499C0D901CD91DC911197C617D707D4
:100FC00090F0C530D10538F3CE0104978617970706
:100FD00010F3C61BD70B2297C193D1936D937C93CB
:100FE000CF01A3DED8CF5B01AC1ABD0A4C018C0E39
:100FF0009D1EA091AF00B091B000512C412CF12C5E
:10100000E12C109731F58091AD009091AE008815DC
:10101000990509F05CC04616570608F058C0809143
:10102000600090916100009741F48DB79EB74091A8
:10103000640050916500841B950BE817F90708F0D0
:1010400052C0F093AE00E093AD00F901718360836C
:10105000A2CF8D919C91119712966C901297139636
:101060007C901397A815B90559F56C0142E0C40EA0
:10107000D11CCA14DB0420F1AC014A195B09DA0166
:101080001296159780F06282738251834083D90152
:101090006D937C93E114F10471F0D7011396FC93E6
:1010A000EE93129778CF22968C0F9D1FF9019183B2
:1010B0008083F301EFCFF093B000E093AF006BCFEC
:1010C0004816590608F42C017D01D3019ACFCB01B3
:1010D00090DD7C01009739F0AE01B80107D0C8015E
:1010E00024DE870158CF10E000E055CFFB01DC0182
:1010F00002C001900D9241505040D8F70895FB0175
:10110000DC0101900D920020E1F708954532510570
:1011100018F4423008F004C0FB011082CB0108959E
:10112000BB274A3031F4992322F4BDE29095819592
:101130009F4F01C0BB27FB015527AA27880F991F86
:10114000AA1FA41710F0A41B83955051B9F7A05DF6
:10115000AA3308F0A95DA193009779F7B111B19373
:101160001192CB0100C0DC01FC01672F7191772344
:10117000E1F7329704C07C916D9370836291AE1752
:10118000BF07C8F308952F923F924F925F926F92DC
:101190007F928F929F92AF92BF92CF92DF92EF9207
:1011A000FF920F931F93CF93DF93CDB7DEB7CA1B88
:1011B000DB0B0FB6F894DEBF0FBECDBF09942A88B3
:1011C000398848885F846E847D848C849B84AA845B
:1011D000B984C884DF80EE80FD800C811B81AA81E8
:1011E000B981CE0FD11D0FB6F894DEBF0FBECDBFB3
:0811F000ED010895F894FFCF12
:1011F8000000B1008000010000008D0030007C007C
:00000001FF
